:020000022000DC
:1070000000000420197202000172020003720200E3
:1070100005720200077202000972020000000000FF
:107020000000000000000000000000000B720200E1
:107030000D720200000000000F72020011720200C7
:1070400065FD020013720200050B0300111C030012
:10705000B12B030013720200FD090300137202003A
:107060001372020013720200137202001372020004
:1070700013720200137202001372020013720200F4
:10708000137202002D6403001372020013720200D7
:107090001372020013720200AD910300137202001A
:1070A00013720200137202001372020013720200C4
:1070B00013720200137202000000000000000000C2
:1070C00013720200137202001372020013720200A4
:1070D0003D120300137202001372020013720200C9
:1070E000137202001372020013720200000000000B
:1070F0000000000013720200000000001372020082
:10710000000000000000000000000000000000007F
:10711000000000000000000000000000000000006F
:10712000000000000000000000000000000000005F
:10713000000000000000000000000000000000004F
:10714000000000000000000000000000000000003F
:10715000000000000000000000000000000000002F
:10716000000000000000000000000000000000001F
:10717000000000000000000000000000000000000F
:1071800000000000000000000000000000000000FF
:1071900000000000000000000000000000000000EF
:1071A00000000000000000000000000000000000DF
:1071B00000000000000000000000000000000000CF
:1071C00000000000000000000000000000000000BF
:1071D00000000000000000000000000000000000AF
:1071E000000000000000000000000000000000009F
:1071F000000000000000000000000000000000008F
:10720000FEE7FEE7FEE7FEE7FEE7FEE7FEE7FEE756
:10721000FEE7FEE700F002B8FFF7FCBF0F484FF0B3
:107220000701884385460E4880470E48016841F4AF
:1072300070010160BFF34F8FBFF36F8F00F01AB87A
:1072400009480A490A4A884207D0521A05D00378E9
:1072500001300B700131013AF9D170470000042070
:10726000F1BE020088ED00E088A90300E03B0020A9
:10727000E03B0020354936480A1A02D007229143E4
:107280008D46344934480A1A06D00722914381F3C7
:107290000988022282F3148830483149314A00F0CB
:1072A00044F831483149324A00F03FF83148324918
:1072B000324A00F03AF832483249334A00F035F8A1
:1072C00032483349334A00F030F833483349344ABE
:1072D00000F02BF833483449344A00F026F834489B
:1072E0003449002200F02CF833483449002200F0E1
:1072F00027F833483349091A082902DB00220260C3
:107300004160314A90471F481F49884205D00268B2
:10731000043003B4904703BCF7E700208646EC46F0
:1073200000200021294A9047FEE7884207D0521AE0
:1073300005D0037801300B700131013AF9D1704763
:10734000884202D002700130FAE770470000042042
:1073500000F80320000004200000042010D60300E1
:10736000E03B00202C3D0020D0730200D0730200CF
:107370006CA8030010D60300E03B0020E03B002097
:1073800088A9030088A9030088A9030088A903002D
:1073900088A9030088A9030088A9030088A903001D
:1073A00010D603005CD703002C3D00202C3D0020AC
:1073B0002C3D0020C4580020C4580020C85800208C
:1073C000C8580020C860002041720200097A0200FB
:1073D00075DF704700BF184676DF704700BF18465C
:1073E0007ADF704700BF18467CDF704700BF184641
:1073F0007FDF704700BF184688DF704700BF184620
:1074000089DF704700BF18468EDF704700BF1846FF
:107410008FDF704700BF1846BFF34F8F00BF064B8A
:10742000DB6803F4E0620449044B1343CB60BFF311
:107430004F8F00BF00BFFDE700ED00E00400FA053C
:10744000B1DF704700BF184667DF704700BF1846BE
:1074500033DF704700BF184600B585B00190019B2F
:10746000002B0AD0074B43F001030393019B9B01C0
:107470000293039B0298984700E000BF05B05DF8B7
:1074800004FB00BF20B5030000B583B00190019B51
:10749000002B0AD04FF47A70FFF7DEFF019B013B0F
:1074A0000193019B002BF5D100E000BF03B05DF814
:1074B00004FB00B583B00190019B043318460AF029
:1074C00025FF00BF03B05DF804FB00B589B005904F
:1074D00003921A460B468DF8133013468DF812307E
:1074E00000230793059B181D9DF812209DF813108B
:1074F0009DF8283000931346039A0BF0BDF90790CE
:10750000079B184609B05DF804FB00B587B00390EF
:1075100001921A460B468DF80B3013468DF80A304F
:1075200000230593039B181D9DF80A309DF80B104E
:10753000019A0BF0C9F90590059B184607B05DF854
:1075400004FB82B00190019BD3F80435184602B0C9
:107550007047000000B583B00190019B1B6818467E
:1075600000F0CEF80346002B04D10B494FF4F6701F
:1075700003F01CFA019B1B681F2B02D84FF0A0439D
:1075800006E0019B1B6803F01F02019B1A60034B7E
:10759000184603B05DF804FB88A9030000030050FF
:1075A00000B585B00190084611461A4603468DF88D
:1075B00003300B468DF8023013468DF8013001ABD5
:1075C0001846FFF7C7FF03909DF803209DF802308F
:1075D0005B001A439DF801309B001A439DF8183058
:1075E0001B0242EA03019DF81C301B04019A194357
:1075F000039B02F5E07243F8221000BF05B05DF86E
:1076000004FB00B585B00390002301930023009391
:107610000023012201210398FFF7C2FF00BF05B03C
:107620005DF804FB00B585B003900B468DF80B3078
:107630009DF80B30002201920022009200220021CE
:107640000398FFF7ADFF00BF05B05DF804FB00B580
:1076500085B0019001AB1846FFF77CFF0390019BBA
:10766000012202FA03F31946039800F035F800BF2F
:1076700005B05DF804FB00B585B0019001AB18467C
:10768000FFF768FF0390019B012202FA03F31946FA
:10769000039800F02BF800BF05B05DF804FB00B5BF
:1076A00085B0019001AB1846FFF754FF0390039893
:1076B00000F00AF80246019B22FA03F303F00103EB
:1076C000184605B05DF804FB82B00190019BD3F829
:1076D0001035184602B0704782B001900091019BAE
:1076E000009AC3F8082500BF02B0704782B001902D
:1076F0000091019B009AC3F80C2500BF02B07047AF
:1077000084B00190019B5B09029300230393029BC9
:10771000002B03D0029B012B04D007E04FF0FF3376
:10772000039303E04FF6FF73039300BF019B03F045
:107730001F030193039A019B22FA03F303F0010351
:10774000002B14BF01230023DBB2184604B070479E
:1077500086B00190019B9B78C3F10E03454A82FBE2
:1077600003125210DB17D31A8DF81730019B1A88B9
:107770009DF817309BB2D31A9BB203F59653ADF820
:107780001430019B9A789DF81730194649000B4434
:107790009B00DBB21344DBB2033B8DF81330019B3B
:1077A000DB7803939DF813201346DB0013441A0182
:1077B00013440233304A82FB03125210DB17D31AF0
:1077C0001A46039B13440393BDF8143040F26D1224
:1077D00002FB03F31A46039B13440393BDF81430D2
:1077E0009B089BB21A46039B13440393BDF81430C5
:1077F000224AA2FB03235B099BB21A46039B9B1AF6
:107800000393BDF814301D4AA2FB0323DB099BB28E
:107810001A46039B13440393039BA3F5FA432D3BA2
:107820000393039A164B13440393039B154A02FBDD
:1078300003F30393019B5B791A464FF4616302FBE8
:1078400003F31A46039B13440393019B9B791A4647
:1078500013461B019B1A9B001A46039B1344039378
:10786000019BDB791A46039B13440393039B184641
:1078700006B07047ABAAAA2A676666661F85EB51F9
:1078800074C2DAFF8051010086B001900091019B23
:10789000534AA2FB03231A0C524B13440593059B36
:1078A0009B000333504AA2FB0323DB0B0493049B8E
:1078B0004E4A02FB03F39B08059AD31A0593059BD6
:1078C0009B0003334A4AA2FB0323DB090393039B78
:1078D00040F2B55202FB03F39B08059AD31A0593B5
:1078E000059A13469B0013440233424AA2FB03232A
:1078F000DB090293059BD9B2029A1346DB001344BD
:107900001A01134402333C4AA2FB03239B08DBB257
:10791000CB1ADBB20133DAB2009BDA70029BDAB227
:10792000029B3549A1FB0313DB08DBB21946490072
:107930000B449B00DBB2D31ADBB20333DAB2009BF9
:107940009A70049B9BB21A46920013441A46910007
:107950001A460B4613449B009AB2039B9BB21344F6
:107960009AB2029B2449A1FB0313DB089BB2134488
:107970009BB2A3F596539AB2009B1A80019B1F4AB3
:10798000A2FB0323D90A1E4BA3FB01231A091346AA
:107990005B001344DB00CA1AD2B2009B5A71019BF0
:1079A000184AA2FB03235909164BA3FB01235A09CA
:1079B00013461B019B1A9B00CA1AD2B2009B9A71F4
:1079C0000199104BA3FB01235A0913461B019B1A73
:1079D0009B00CA1AD2B2009BDA7100BF06B0704792
:1079E00007452EC2B8BA2500BD066B39B13A020070
:1079F00073B06D16D7802BD6CDCCCCCCC5B3A291AD
:107A0000ABAAAAAA8988888808B502F001FF02F00B
:107A100009F8FCE700BF704700BF704708B5292090
:107A2000FFF715FE00BF08BD08B52920FFF723FEAC
:107A300000BF08BD00BF704700B587B003468DF892
:107A400007309DF80730002B28D0254A254BD31A44
:107A5000DB081B0443F003032349184610F05CFBCA
:107A6000224B0022C3F84421204B1846FFF769FD42
:107A700003465A1C012301211D4809F0B5FA039061
:107A8000039B0293029B002B04D01A4AA421029864
:107A90000DF084F80020FFF7DAFD1CE0104A114BCE
:107AA000D31ADB081B0443F003031349184610F0F4
:107AB00033FB01210E4809F035FA0590059B04932C
:107AC000049B002B04D00B4AAF2104980DF066F8FC
:107AD0000020FFF7D0FD00BF07B05DF804FB00BF3A
:107AE00020A90300E0A80300C0A903000040024051
:107AF00000B50300D4A90300F0A9030008B50120D4
:107B0000FFF79AFFFFF786FFFFF788FF064A074B4C
:107B1000D31ADB081B0443F003030549184610F091
:107B2000FBFA00BF08BD00BF20A90300E0A80300C6
:107B300004AA030000B585B003468DF807309DF810
:107B40000730002B19D1124B1B680133104A136008
:107B5000104BD3F8403503F10802012300210E48F1
:107B600009F042FA0390039B0293029B002B04D07E
:107B70000A4AED2102980DF011F89DF80730012B0B
:107B800002D10020FFF758FF00BF05B05DF804FBED
:107B9000303D00200040024000B50300D4A903009E
:107BA00000B587B01A4A01AB92E8030018600433AD
:107BB000198040F6FF73ADF8043001AB154A194641
:107BC000154809F013F90590059B0493049B002BBD
:107BD00005D0124A4FF4827104980CF0DFFF0123A4
:107BE000082200210C4809F0FFF90590059B03933A
:107BF000039B002B05D0094A4FF4847103980CF0C5
:107C0000CDFF054809F064F900BF07B05DF804FB3B
:107C100018AA0300357B020000B50300D4A90300B5
:107C200000B587B001900B46ADF80230BDF80230C8
:107C3000ADF80E30124B1B880DF10E020199114860
:107C400007F0F0FA0590059B082B10D0059B132B2D
:107C50000DD0059B052B0AD0059B0493049B002B9C
:107C600005D0094A4FF4937104980CF097FF059BD7
:107C7000132BDBD0059B184607B05DF804FB00BF53
:107C8000043C0020E83B0020D4A9030000B585B0E7
:107C90000190D823ADF80A30084B1B880DF10A0279
:107CA0000199074807F0BEFA0390039B132BF3D00A
:107CB000039B184605B05DF804FB00BF043C0020A0
:107CC000E83B0020024B01221A6000BF704700BF52
:107CD0003C3D002000B587B002F058FD03464B3311
:107CE0000493049B154AA2FB03239B090393049B63
:107CF000124AA2FB031292094FF47A7101FB02F2BD
:107D00009B1A0293029B092B02D80D4B059307E0A7
:107D1000029B632B02D80B4B059301E00A4B0593A2
:107D2000029B0093039B059A1921084811F05AFE03
:107D3000064B184607B05DF804FB00BFD34D621038
:107D400020AA03002CAA030034AA0300CC47002079
:107D500000B585B0184B1B884FF6FF72934225D0B3
:107D6000154B1B8801AA0DF105011846FFF74CFBC6
:107D70000390039B0293029B002B05D00F4A4FF404
:107D8000C77102980CF00AFF9DF804309BB21B02E9
:107D9000ADF806309DF90530DBB29AB2BDF8063079
:107DA0001343ADF80630BDF8063000E00023184656
:107DB00005B05DF804FB00BF043C0020D4A903001B
:107DC00030B5A7B01F4A204BD31ADB081B0443F081
:107DD00003031E49184610F09FF9FFF7B9FF034649
:107DE000ADF89630BDF896308DF89530BDF89630E8
:107DF0001B0A9BB28DF894304FF08053D3F8A84003
:107E00004FF08053D3F8A450FFF764FF01469DF96B
:107E100095309DF8942006A8049203930291019551
:107E200000940B4B0B4A782111F0DCFD2490249B2D
:107E30009AB206AB11461846FFF7F2FE00BF27B014
:107E400030BD00BF20A90300E0A803003CAA030046
:107E50005CAA030064AA030008B50D4A0D4BD31AAF
:107E6000DB081B0443F003030B49184610F054F9D8
:107E700000E000BF10F068FA0346002BF9D1074B71
:107E800001221A60064B00221A6000BF08BD00BF25
:107E900020A90300E0A80300B0AA0300403D002091
:107EA0002C3D002000B583B0134A144BD31ADB08D5
:107EB0001B0443F003031249184610F02DF9114B2F
:107EC00000221A6000238DF807300F4A9DF8073012
:107ED000137000BF084A094BD31ADB081B0443F098
:107EE00003030A4A12680A49184610F023F900BF32
:107EF00003B05DF804FB00BF20A90300E0A8030065
:107F0000D0AA0300403D0020A64500202C3D0020C3
:107F1000F0AA030000B585B0174B0393039811F046
:107F200063FE03469BB219460398FFF779FE134B95
:107F30000293029811F058FE03469BB2194602982C
:107F4000FFF76EFE0E4B0193019811F04DFE0346B4
:107F50009BB219460198FFF763FE0A4B0093009805
:107F600011F042FE03469BB219460098FFF758FEF7
:107F700000BF05B05DF804FB18AB0300E4AB0300E1
:107F800090AC030034AD030008B5064A064BD31A83
:107F9000DB081B0443F003030449184610F0BCF847
:107FA00000BF08BD20A90300E0A80300D4AD030072
:107FB00000B595B00B4A0C4BD31ADB081B0443F0F9
:107FC00003030A49184610F0A7F8094B1B68002B59
:107FD00004D16B460A211846FFF722FE00BF15B0F8
:107FE0005DF804FB20A90300E0A80300F0AD030046
:107FF000403D002008B5094A094BD31ADB081B0491
:1080000043F003030749184610F086F8064B1B6837
:108010003C33054A136000BF08BD00BF20A9030020
:10802000E0A8030018AE0300303D002008B5064A62
:10803000064BD31ADB081B0443F00303044918461C
:1080400010F06AF800BF08BD20A90300E0A80300F3
:1080500038AE030008B5064A064BD31ADB081B04EA
:1080600043F003030449184610F056F800BF08BD5A
:1080700020A90300E0A8030064AE030008B5064A87
:10808000064BD31ADB081B0443F0030304491846CC
:1080900010F042F800BF08BD20A90300E0A80300CB
:1080A00084AE030000B583B001900091074A084BED
:1080B000D31ADB081B0443F003030649184610F0EB
:1080C0002BF800BF03B05DF804FB00BF20A903003C
:1080D000E0A80300A4AE030000B583B001900091B6
:1080E000074A084BD31ADB081B0443F00303064975
:1080F000184610F011F800BF03B05DF804FB00BF94
:1081000020A90300E0A80300C8AE030000B597B0A3
:108110000F4A104BD31ADB081B0443F003030E492C
:1081200018460FF0F9FF0D4B1B881BB201A80C4A33
:10813000502111F057FC03461593159B9AB201ABE1
:1081400011461846FFF76CFD00BF17B05DF804FB41
:1081500020A90300E0A80300ECAE0300443D00208A
:1081600010AF030000B59BB001900091124A134B71
:10817000D31ADB081B0443F00303114918460FF020
:10818000CBFF05AB009A0199184611F0D1FC0DF117
:10819000130303AA05A80B4911F03AFC03461993EF
:1081A000199B002B03D0039B1AB2074B1A8000BF08
:1081B0001BB05DF804FB00BF20A90300E0A803008A
:1081C0001CAF030044AF0300443D002010B598B03D
:1081D000194A1A4BD31ADB081B0443F0030318494E
:1081E00018460FF099FF174B1B68174A82FB0312C2
:1081F0009210DB17D41A134B1968134B83FB01231E
:108200009A10CB17D21A13469B0013445B00CA1A6C
:1082100003A8009223460D4A502111F0E3FB0346C8
:108220001793179B9AB203AB11461846FFF7F8FC59
:1082300000BF18B010BD00BF20A90300E0A80300D4
:108240004CAF0300483D00206766666670AF0300D0
:1082500000B59DB003900291164A174BD31ADB0864
:108260001B0443F00303154918460FF055FF07ABF5
:10827000029A0399184611F05BFC04A905AA07A805
:108280000DF11B0300930B460D4911F0C1FB034692
:108290001B931B9B002B09D0059A13469B0013448C
:1082A0005B001A46049B1344064A136000BF1DB0CE
:1082B0005DF804FB20A90300E0A8030080AF0300E1
:1082C000A8AF0300483D002000B599B0184A194BEB
:1082D000D31ADB081B0443F00303174918460FF0B9
:1082E0001BFFFFF735FD0346ADF85E30BDF85E308D
:1082F0008DF85D30BDF85E301B0A9BB28DF85C30A6
:108300009DF95D209DF85C3002A8009313460B4A4E
:10831000502111F067FB03461693169B9AB202ABED
:1083200011461846FFF77CFC00BF19B05DF804FB4E
:1083300020A90300E0A80300B0AF0300D0AF030002
:1083400008B5084A084BD31ADB081B0443F00303A3
:10835000064918460FF0E0FE054B01221A6000BFE7
:1083600008BD00BF20A90300E0A80300E8AF030098
:108370004C3D002070B59EB01B4A1C4BD31ADB0845
:108380001B0443F003031A4918460FF0C5FE194BAE
:108390001B681BAA11461846FFF776FA9DF86F3046
:1083A0001E469DF86E30BDF86C209DF871109DF84A
:1083B000720004469DF87300054607A804950394CF
:1083C00002910192009333460B4A502111F00AFBAF
:1083D00003461D931D9B9AB207AB11461846FFF743
:1083E0001FFC00BF1EB070BD20A90300E0A8030061
:1083F0000CB00300303D00202CB0030000B599B054
:108400000590049109AB049A0599184611F090FB68
:1084100009AA049B134400221A7014A915AA09A8DA
:1084200010AB039311AB029312AB019313AB009308
:108430000B46244911F0ECFA03461793179B002BC7
:108440003BD0159B002B38DD159B1F2B35DC149B77
:10845000002B32DD149B0C2B2FDC129B172B2CDCFA
:10846000119B3B2B29DC109B3B2B26DC07AB00220E
:108470001A605A60139B9BB2ADF81C30149BDBB2A0
:108480008DF81E30159BDBB28DF81F30129BDBB2CE
:108490008DF82130119BDBB28DF82230109BDBB2BE
:1084A0008DF8233007AB1846FFF752F91690169B4C
:1084B000002B02D0044A169B136000BF19B05DF870
:1084C00004FB00BF4CB00300303D002000B583B07A
:1084D0000CF0C0FF0190019B0093009B002B05D086
:1084E000044A40F24E3100980CF058FB00BF03B034
:1084F0005DF804FBD4A9030000B587B003468DF8EE
:10850000073002AB00221A605A609DF807209DF8E0
:10851000083062F300038DF8083002AB19460220E0
:10852000FEF792FF0590059B0493049B002B05D05A
:10853000044A40F2713104980CF030FB00BF07B0E0
:108540005DF804FBD4A9030000B587B01C4A6B4654
:1085500092E8030083E803009DF80830012262F3EB
:1085600003038DF808309DF80830012262F30713E9
:108570008DF8083002AB0C2212491846FEF734FF82
:108580000590059B0493049B002B05D00E4A40F2F6
:10859000AB3104980CF002FB6B461846FEF720FF47
:1085A0000590059B0393039B002B05D0064A40F2E0
:1085B000AF3103980CF0F2FA00BF07B05DF804FB8E
:1085C00070B0030060B00300D4A9030000B585B00B
:1085D000002003F0A7F80390039B0293029B002B5B
:1085E00005D0144A40F2BD3102980CF0D7FAFFF7DB
:1085F00021FA03F020FA0390039B0193019B002BC7
:1086000005D00C4A40F2C33101980CF0C7FAFEF7CE
:108610001FFF0390039B0093009B002B05D0054A8E
:1086200040F2C73100980CF0B9FA00BF05B05DF810
:1086300004FB00BFD4A9030030B5BBB00190019B7F
:108640001B78002B40F0A683AC4AAD4BD31ADB0855
:108650001B0443F00403AB4918460FF05DFDA74A25
:10866000A74BD31ADB081B0443F00400019B1969D4
:10867000019B9B8A1A460FF0B3FD0A2003F052F8C3
:108680003790379B3693369B002B05D09E4A40F29D
:10869000DB3136980CF082FA002339932BE0019BF2
:1086A0001A69399B13441B7818460DF0EFF937907F
:1086B000379B002B19D0379B112B16D08F4A904B2C
:1086C000D31ADB081B0443F00103379A8F4918467D
:1086D0000FF030FD379B3493349B002B05D08A4A32
:1086E00040F2E23134980CF059FA379B112BD6D076
:1086F000399B01333993019B9B8A1A46399B9342DC
:10870000CDD3019B1A69019B9B8A013B13441B78C3
:108710000D2B06D100BF0A200DF0B8F90346112B2E
:10872000F9D0019B1A69019B9B8A013B13441B787A
:108730008DF8E3309DF8E3300D2B08D1019B1A69C9
:10874000019B9B8A023B13441B788DF8E3309DF814
:10875000E330612B05D1FFF7F3FD019B00229A82E4
:1087600018E3019B1B6907226949184611F000F9BB
:108770000346002B12D12020FEF77DFF6420FEF778
:108780006BFE2020FEF763FF6420FEF765FE1120DC
:1087900001F0F2F8019B00229A82FBE2019B1B6927
:1087A00006225C49184611F0E3F80346002B45D138
:1087B0002DAB00221A605A609A60DA601A615A6121
:1087C0001A8386238DF8B5309C238DF8B7300323A8
:1087D0008DF8B83010238DF8B93010238DF8BA30E9
:1087E00010238DF8BB3010238DF8BC3010238DF88A
:1087F000BD3010238DF8BE3010238DF8BF3010230C
:108800008DF8C030FF238DF8C33002238DF8C430BB
:10881000F0238DF8CA3022238DF8CB300A238DF84F
:10882000CC30E3238DF8CD302DAB1A461A21002031
:1088300001F0F4FB019B00229A82ABE2019B1B69D1
:108840000A223549184611F093F80346002B40F0F0
:10885000618126AB00221A605A609A60DA601A6160
:108860005A611A83019B1B690A331B78302B55D13F
:1088700018AB00221A605A609A60DA601A615A6175
:108880001A8386238DF861309C238DF8633003238F
:108890008DF8643020238DF8653020238DF8663004
:1088A00020238DF8673020238DF8683020238DF841
:1088B000693020238DF86A3020238DF86B30202317
:1088C0008DF86C30FF238DF86F3002238DF87030F7
:1088D000F0238DF8763022238DF877300A238DF837
:1088E0007830E3238DF8793026AC18AD0FCD0FC466
:1088F00095E8070003C42280F0E000BF20A9030030
:10890000E0A8030078B00300D4A90300ACB00300D2
:10891000D8B00300E0B00300E8B00300019B1B697E
:108920000A331B78312B44D111AB00221A605A60F4
:108930009A60DA601A615A611A8386238DF845308D
:108940009C238DF8473003238DF8483040238DF861
:10895000493040238DF84A3040238DF84B30402376
:108960008DF84C3040238DF84D3040238DF84E303B
:1089700040238DF84F3040238DF85030FF238DF881
:10898000533002238DF85430F0238DF85A302223CF
:108990008DF85B300A238DF85C30E3238DF85D3071
:1089A00026AC11AD0FCD0FC495E8070003C422809B
:1089B00094E0019B1B690A331B78322B44D10AAB2C
:1089C00000221A605A609A60DA601A615A611A834A
:1089D00086238DF829309C238DF82B3003238DF8C6
:1089E0002C3050238DF82D3050238DF82E3050230D
:1089F0008DF82F3050238DF8303050238DF83130E2
:108A000050238DF8323050238DF8333050238DF8B9
:108A10003430FF238DF8373002238DF83830F023BF
:108A20008DF83E3022238DF83F300A238DF84030F8
:108A3000E3238DF8413026AC0AAD0FCD0FC495E885
:108A4000070003C4228049E0019B1B690A331B789D
:108A5000332B43D103AB00221A605A609A60DA606C
:108A60001A615A611A8386238DF80D309C238DF884
:108A70000F3003238DF8103060238DF81130602300
:108A80008DF8123060238DF8133060238DF8143088
:108A900060238DF8153060238DF8163060238DF833
:108AA000173060238DF81830FF238DF81B30022318
:108AB0008DF81C30F0238DF8223022238DF82330DE
:108AC0000A238DF82430E3238DF8253026AC03AD3E
:108AD0000FCD0FC495E8070003C422801FAB00220E
:108AE0001A605A609A60DA601A615A611A831FA983
:108AF00026AB1A22184610F03BFF0346002B05D088
:108B000026AB1A461A21002001F088FA019B0022A8
:108B10009A823FE1019B1B691B78412B14D1019B79
:108B20001B699E49184601F055FF35909B4B1878FC
:108B3000359BDBB2013BDBB2994A194601F0BEFA24
:108B4000019B00229A8225E19DF8E330732B05D129
:108B5000FFF736F9019B00229A821BE19DF8E33072
:108B6000622B05D1FFF778F9019B00229A8211E16F
:108B70009DF8E330632B05D1FFF71AFA019B002221
:108B80009A8207E19DF8E330642B05D1FFF732FAB2
:108B9000019B00229A82FDE09DF8E330652B08D10D
:108BA0000120FEF749FFFFF77DF9019B00229A8221
:108BB000F0E09DF8E330662B05D1FFF75FFA019BEB
:108BC00000229A82E6E09DF8E330672B05D1FFF79B
:108BD00041FA019B00229A82DCE09DF8E330682B89
:108BE00006D1704B01221A60019B00229A82D1E0CB
:108BF0009DF8E330692B05D1FFF766FB019B00224E
:108C00009A82C7E09DF8E3306C2B05D1FFF7BCF9E1
:108C1000019B00229A82BDE09DF8E3306F2B1BD1AF
:108C2000614A624BD31ADB081B0443F0030360491B
:108C300018460FF071FA0120FEF7FEFEFEF7ECFE7B
:108C4000FEF7F2FE00E000BF5A4BD3F84431002B90
:108C5000F9D0FFF7BBFC9DE09DF8E330702B05D108
:108C6000FFF7E4F9019B00229A8293E09DF8E3303C
:108C7000742B05D1FFF77EFB019B00229A8289E0CD
:108C80009DF8E330542B02D1FFF71CF882E09DF8E9
:108C9000E3302F2B1ED99DF8E330392B1AD8019BD6
:108CA0009B8A132B16D1404A404BD31ADB081B0476
:108CB00043F00303404918460FF02EFA019B1A694E
:108CC000019B9B8A19461046FFF798FB019B0022E7
:108CD0009A825FE09DF8E330762B06D10120FEF703
:108CE000ABFE019B00229A8254E09DF8E330792B81
:108CF0000BD1019B1A69019B9B8A19461046FFF70D
:108D0000D1F9019B00229A8244E09DF8E3307A2B4E
:108D10000BD1019B1A69019B9B8A19461046FFF7EC
:108D2000DBF9019B00229A8234E09DF8E330722B3C
:108D300005D1FFF7EBF9019B00229A822AE09DF80A
:108D4000E330522B0CD1019B1A69019B9B8A013B9A
:108D500019461046FFF706FA019B00229A8219E095
:108D60009DF8E3306D2B05D1FFF730FA019B00220F
:108D70009A820FE09DF8E3304D2B0BD1019B1A69CD
:108D8000019B9B8A013B19461046FFF761FA019B44
:108D900000229A8200BF3BB030BD00BFB047002028
:108DA000B1470020503D002020A90300E0A80300A7
:108DB000F4B003000040024018B1030000B583B0D6
:108DC0000190054A40F2BA4101980BF0E7FE00BF5E
:108DD00003B05DF804FB00BFD4A9030000B587B061
:108DE00000230193144B019301AB1946134805F07E
:108DF000EDFE0590059B0493049B002B05D0104AC3
:108E000040F2D54104980BF0C9FE0E4B029302AB21
:108E100019460D4806F060F90590059B0393039BE6
:108E2000002B05D0064A40F2DC4103980BF0B6FE59
:108E300000BF07B05DF804FBBD8D0200543F002069
:108E4000D4A9030039860200E83B002000B585B0B4
:108E50000190019B1B78002B11D10B4B1B883B21F0
:108E60001846FEF7B9FA0390039B0293029B002B6E
:108E700005D0064A40F2FF4102980BF08FFE00BF7A
:108E800005B05DF804FB00BF043C0020D4A903003A
:108E900000B583B00190054A4FF4A16101980BF031
:108EA0007DFE00BF03B05DF804FB00BFD4A9030042
:108EB00030B58BB00D4B01AC1D460FCD0FC495E8FE
:108EC000070084E8070001AB184604F013FD099081
:108ED000099B0893089B002B05D0054A40F22551B9
:108EE00008980BF05BFE00BF0BB030BD3CB1030037
:108EF000D4A9030082B0ADF804009DF80430013B12
:108F0000062B1AD801A252F823F000BF298F0200C5
:108F10002F8F02002F8F0200358F02003B8F02003F
:108F20003B8F02002F8F0200064B1B6807E0054BAA
:108F30005B6804E0034B9B6801E0024BDB6818466A
:108F400002B07047203C002030B59BB001900091EA
:108F5000019B04331993019B1B88103B462B00F2A5
:108F6000398201A252F823F0859002006F9102002D
:108F70009F910200B3920200D5930200D5930200A4
:108F8000D5930200D5930200D5930200D593020039
:108F9000D5930200D5930200D5930200D593020029
:108FA000D5930200BF910200D59302008192020086
:108FB00019920200D5930200D5930200D5930200C6
:108FC000D5930200D5930200D5930200D5930200F9
:108FD000D5930200D5930200D5930200D5930200E9
:108FE000D5930200D5930200D5930200D5930200D9
:108FF000D5930200D5930200D5930200D5930200C9
:10900000D5930200D5930200D5930200D5930200B8
:10901000D593020045930200D5930200D593020038
:10902000D5930200D5930200D5930200D593020098
:10903000D5930200D5930200D5930200D593020088
:10904000D5930200D5930200D5930200D593020078
:10905000D5930200D5930200D5930200D593020068
:10906000D5930200D5930200D5930200D593020058
:10907000DD920200D5930200D5930200D593020041
:109080008D9302009F4AA04BD31ADB081B0443F0C8
:1090900003039E4918460FF03FF8072002F042FBF9
:1090A0001890189B0E930E9B002B05D0984A40F207
:1090B000FB510E980BF072FD019B9A88954B1A801C
:1090C000944B1B881946944805F0A2FD1890189BF4
:1090D0000D930D9B002B05D08D4A40F202610D9837
:1090E0000BF05CFD8D4B1B88ADF82430019B9B88F9
:1090F00009AA11461846FEF78BF91890189B0C9395
:109100000C9B002B05D0824A40F20A610C980BF0B0
:1091100045FD834A07AB92E8030083E803007D4BDB
:109120001B8807AA11461846FEF752F91890189B9B
:109130000B930B9B002B05D0754A40F214610B98E2
:109140000BF02CFD734B1B88002200211846FEF704
:1091500053F91890189B0A930A9B002B00F03C814E
:109160006B4A4FF4C3610A980BF018FD34E1654A6D
:10917000654BD31ADB081B0443F003036949184607
:109180000EF0CAFF634B4FF6FF721A8000238DF872
:109190002730654A9DF82730137000BF27E1594AF0
:1091A000594BD31ADB081B0443F00300199B9B881F
:1091B0001A46199BDB885D490EF0CDFF17E1199A1D
:1091C00005AB043292E8030083E80300199B1B8877
:1091D00005AA11461846FEF7FBF81890189B109345
:1091E000109B002B05D04A4A40F2396110980BF0D1
:1091F000D5FC444A444BD31ADB081B0443F003005C
:10920000199B9B881A46199BDB8849490EF0A3FFDE
:109210000120FFF771F9EAE0019B08331293129BDA
:109220001B78232B0BD1374A374BD31ADB081B048F
:1092300043F004033F4918460EF06EFFD7E0129B3F
:109240005B788DF81030129B9B788DF811302D4A89
:109250002D4BD31ADB081B0443F00304129B1B782D
:10926000002B01D1344B00E0344B1D460498FFF72E
:1092700041FE03462A46324920460EF06CFFB6E016
:10928000264B1B88ADF80C30019B9B8803AA114626
:109290001846FEF7BDF81890189B1193119B002BF0
:1092A00000F09C801A4A4FF4CD6111980BF076FCC7
:1092B00094E0184B1888002300228521FEF798F8C7
:1092C0001890189B0F930F9B002B00F08980104A79
:1092D00040F273610F980BF061FC81E00D4B188830
:1092E000002300220021FEF7ABF81890189B15937D
:1092F000159B002B76D0064A40F27D6115980BF045
:109300004DFC6FE020A90300E0A8030058B1030062
:10931000D4A90300043C0020543F00203CB20300C9
:1093200070B0030064B10300A645002074B10300CF
:10933000A0B10300D8B1030004B2030010B20300CF
:109340001CB20300019B9B8813211846FEF744F8CA
:109350001890189B1493149B002B05D0254A4FF4AA
:10936000D16114980BF01AFC234B1B881846FEF7AA
:1093700047F81890189B1393139B002B34D01D4A69
:1093800040F28C6113980BF009FC2DE0019B9B8847
:1093900013211846FEF720F81890189B1793179B77
:1093A000002B05D0134A40F2976117980BF0F6FB9B
:1093B000114B1B881846FEF723F81890189B16933C
:1093C000169B002B12D00B4A40F29B6116980BF0B3
:1093D000E5FB0BE000BF0AE000BF08E000BF06E0CD
:1093E00000BF04E000BF02E000BF00E000BF00BF1C
:1093F0001BB030BDD4A90300043C002000B587B0E9
:109400000FF052FE0590059B0493049B002B05D0A2
:10941000164A40F2B26104980BF0C0FB002301939E
:1094200001AB194601200FF0F7FE0590059B039351
:10943000039B002B05D00D4A4FF4D76103980BF026
:10944000ADFB01AB184610F005F80590059B0293A3
:10945000029B002B05D0054A40F2BC6102980BF03C
:109460009DFB00BF07B05DF804FB00BFD4A903005B
:1094700000B583B001900091009B5A88184B1B885F
:109480009A421AD1009B1B8840F67722934214D14E
:10949000009B9B88033B9AB2124B1A80124A134BD3
:1094A000D31ADB081B0443F003000E4B1B881A463B
:1094B0000C4B1B880E490EF04EFE0B4A0B4BD31A79
:1094C000DB081B0443F00400019B5B881A46019BE8
:1094D0001B8808490EF03FFE00BF03B05DF804FB97
:1094E000043C0020063C002020A90300E0A8030063
:1094F00040B203005CB2030000B585B019491A48B8
:1095000005F032FA0390039B0293029B002B05D0D7
:10951000164A40F2FA6102980BF040FBF72112481C
:1095200005F04DFA0390039B0193019B002B05D09E
:109530000E4A40F2017101980BF030FBF7210A4806
:1095400005F059FA0390039B0093009B002B05D074
:10955000064A4FF4E16100980BF020FB00BF05B014
:109560005DF804FB71940200603F0020D4A9030061
:1095700000B585B00190019B1B78022B60D0022BB7
:1095800070DC002B02D0012B63D06BE0394B1B78D1
:109590001A46394B134418460CF03EFA354B1B78EB
:1095A0000133DAB2334B1A70324B1B78013B324A2B
:1095B000D35C0A2B0DD02F4B1B78013B2E4AD35C7A
:1095C0000D2B06D02B4B1B789AB22C4B1B889A4242
:1095D0004AD3082002F0A6F80390039B0293029B53
:1095E000002B05D0264A40F21D7102980BF0D6FAE6
:1095F000204B1B78012B1FD9224A234BD31ADB089F
:109600001B0443F00403214918460EF085FD1D4A52
:109610001D4BD31ADB081B0443F00403154A1278D0
:1096200092B2154918460EF0DBFD124B1B789BB227
:1096300019461148FEF7F4FA0E4B00221A7013E097
:10964000019B5B680E4A40F22D7118460BF0A6FA9A
:109650000BE0019B5B680A4A40F2317118460BF03F
:109660009DFA02E000BF00E000BF00BF05B05DF85A
:1096700004FB00BFE5470020E8470020063C00202F
:10968000D4A9030020A90300E0A8030098B20300B6
:1096900000B58DB004AB00221A605A609A60DA609F
:1096A0001A615A611623049318230593104B0993EA
:1096B000104B00934FF4807301930F4B02934FF4C0
:1096C00080730393694604A807230C4A0CF014F92D
:1096D0000B900B9B0A930A9B002B05D0084A40F283
:1096E0004E710A980BF05AFA00BF0DB05DF804FBFA
:1096F00000E0D701A8450020A8460020719502008F
:10970000D4A9030000B585B003468DF807309DF855
:109710000730002B11D0032B12D1022002F002F8E7
:109720000390039B0293029B002B0BD0084A40F24C
:10973000657102980BF032FA04E0FEF747FF02E091
:1097400000BF00E000BF00BF05B05DF804FB00BF34
:10975000D4A9030000B587B003468DF807309DF803
:1097600007300A2B06D00A2B36DC042B05D0072B3A
:1097700019D031E0FEF72AFF33E01C4B1B88132180
:109780001846FDF729FE0590059B082B26D0059B62
:109790000393039B002B21D0154A40F2927103984A
:1097A0000BF0FCF91AE0114B1B884FF6FF72934245
:1097B00016D1104803F01FFF0590059B082B0FD012
:1097C000059B0493049B002B0AD0094A40F29B712D
:1097D00004980BF0E3F903E000BF02E000BF00E0F3
:1097E00000BF00BF07B05DF804FB00BF043C0020D1
:1097F000D4A903007C3F002000B5AFB001ABAC2280
:109800000021184610F0BDF902238DF8043005231D
:109810008DF807300123ADF85030124B159301231A
:109820008DF880304023239344F2506324930E4BF1
:109830002A9301AB19460D4803F0BEFC2D902D9BD9
:109840002C932C9B002B05D0094A40F2EA712C98EE
:109850000BF0A4F90121054803F0A1FC00BF2FB0D3
:109860005DF804FB083C0020059702007C3F0020C7
:10987000D4A9030000B587B001901749032001F077
:109880006BFF0590059B0493049B002B05D0134AA6
:1098900040F2F97104980BF081F90DF10B031946B0
:1098A000002002F02BF90590059B0393039B002BEE
:1098B00005D00A4A40F2FC7103980BF06FF99DF84D
:1098C0000B30022B0CBF01230023DAB2019B1A706C
:1098D00000BF07B05DF804FB55970200D4A9030050
:1098E00000B583B04FF4804100200EF03DF90190A7
:1098F000019B0093009B002B05D0064A40F6070110
:1099000000980BF04BF90EF0C5F800BF03B05DF8FE
:1099100004FB00BFD4A9030000B583B00DF00EFE18
:109920000190019B0093009B002B05D0044A40F658
:10993000110100980BF032F900BF03B05DF804FB91
:10994000D4A9030000B583B00321094803F010FD3A
:109950000190019B0093009B002B05D0054A40F627
:109960001A0100980BF01AF900BF03B05DF804FB70
:109970007C3F0020D4A9030000B585B003468DF8D4
:109980000730114A9DF807301370104B01225A60BE
:109990000E4B0122DA6000220C490D4808F08EF8C7
:1099A0000390039B112BF6D0039B0293029B002B89
:1099B00005D0084A40F6560102980BF0EFF800BFB8
:1099C00005B05DF804FB00BF543E00200C3C0020B5
:1099D00008B50300D4A9030000E020BF054B1B78A5
:1099E000DBB283F00103DBB2002BF6D100BF00BF76
:1099F000704700BFB043002000B583B003468DF828
:109A00000730074B00221A709DF807301846FFF701
:109A1000B3FFFFF7E1FF00BF03B05DF804FB00BF39
:109A2000B04300202DE9F04F9DB0B74B1B68002BD1
:109A300005D0FEF76FFAB44B00221A60FFE1B34B7A
:109A40001B68002B3ED000231B930CAB1A461A2137
:109A5000002000F0BBFAAE4A0BAB12681146198029
:109A60000233120C1A7000231A9320E01A9B192B50
:109A700005D100238DF82C3000238DF82D301B9B51
:109A8000A44A98181B9BC3F1F4010CAA1A9B134417
:109A90001B781A460BAB009313469F4A0FF0A2FFA8
:109AA00002461B9B13441B931A9B01331A931A9B68
:109AB000192BDBD966219748FEF7B2F8934B0022A9
:109AC0001A60BCE1954B1B68002B00F00181944AA1
:109AD000944BD31ADB081B0443F003039249184646
:109AE0000EF01AFB00BF0EF02FFC0346002BFAD13C
:109AF0008E4A0323C2F808358C4A0123D3608B4A6F
:109B0000012313600023199333E0894A199B1360E2
:109B1000002318930EE0199BDBB203F01F03DBB2A6
:109B20003033D9B2824A189B1A440B461370189BE3
:109B300001331893189B792BEDD97A2317930FE0F3
:109B4000199BDBB203F00F03DBB2C3F15A03D9B2A6
:109B5000774A179B1A440B461370179B01331793D0
:109B6000179BF32BECD97248FEF790F8199B013341
:109B70001993199A42F20F739A42C6D96B4A01237C
:109B800013646A4A0123536042F210724FF00003DB
:109B9000CDE91423DDE9144522462B464FF00000A1
:109BA0004FF00001190141EA1271100102460B4603
:109BB000161B63EB05074FF000024FF00003BB00DC
:109BC00043EA9673B20016461F463319049347EBD7
:109BD000050305934FF000024FF00003DDE9044553
:109BE00029468B00214643EA917321468A001C4690
:109BF0001346CDE914344A4A4A4BD31ADB081B04F6
:109C000043F00300149A494BD3F8403549490EF00C
:109C1000A2FADDE9140102460B464FF000044FF0B2
:109C200000055D0145EAD265540122462B46B2EBA0
:109C3000000863EB01094FF000024FF000034FEA08
:109C4000492343EAD8534FEA48229046994618EBF5
:109C5000000A49EB010B4FF000024FF000034FEAFE
:109C60008B1343EA9A634FEA8A12B2EB0A04069412
:109C700063EB0B030793DDE9064523461B180893A6
:109C80002B4641EB03030993DDE90834CDE9143495
:109C9000264BD3F84035002202930392DDE90223DC
:109CA000DDE914010FF0E0FC02460B46CDE9142378
:109CB0001B4A1C4BD31ADB081B0443F00303149A02
:109CC0001D4918460EF036FA144B00221A60B6E011
:109CD0001A4B1B78DBB2002B36D1194B1B68002BBB
:109CE00000F0AD8002238DF84F30144A9DF84F30BC
:109CF000137000BF0820FFF73FFE124B1B680133B3
:109D0000104A13609BE000BF503D00204C3D0020F6
:109D100028B30300A8440020B8B203003C3D002053
:109D200020A90300E0A80300C0B2030000A0014086
:109D3000B4430020DCB203000CB30300A6450020AE
:109D4000403D0020A04500203F4B1B78DBB2012B9B
:109D500075D03D4B1B78DBB2032B0FD12A20FDF7CA
:109D60009EFC0346002B6AD100F0C4F904238DF851
:109D70004E30354A9DF84E30137060E0324B1B7800
:109D8000DBB2052B42D1314B1B785A1CD1B22F4A82
:109D900011701A4613465B0013441B011A462C4BE4
:109DA00013441693294B1B78052B0CBF012300236A
:109DB000DBB21A460321169800F0D2F90346002BB5
:109DC0001CD0224B00221A70224B1B680133214AFF
:109DD0001360F4211E48FDF723FF1F4B1B68002B67
:109DE00007D11D4A1A4B10461946F4231A460FF0A4
:109DF0009FFEF422002116480FF0C3FE00238DF8C9
:109E00004D30114A9DF84D30137018E00EF09CFA59
:109E1000034683F00103DBB2002B10D00F4B1B680D
:109E200001330E4A13600D4B1B68B3F57A7F06D1E0
:109E30001120FFF7A1FD094B00221A60FFE700BFC8
:109E40001DB0BDE8F08F00BFA64500209C45002056
:109E5000B44300202C3D0020A8440020A847002047
:109E600084B001900091104B01221A700F4B1B78A7
:109E7000DBB2022B07D103238DF80F300B4A9DF87C
:109E80000F3013700CE0094B1B78DBB2042B07D1A9
:109E900005238DF80E30054A9DF80E30137000BF73
:109EA00000BF04B0704700BFB0430020A6450020AB
:109EB00010B586B0124B6C460FCB84E80F00694694
:109EC0000023104A104807F029FC0590059B0493D5
:109ED000049B002B05D00D4A40F6411104980AF06E
:109EE0005DFE0B4A0B4BD31ADB081B0443F0030344
:109EF000094918460EF010F900BF06B010BD00BFAA
:109F000048B30300619E020008B50300D4A9030012
:109F100020A90300E0A803002CB3030000B583B020
:109F200001900649064BDB68023B1A4601980FF088
:109F3000FFFD00BF03B05DF804FB00BF563D0020ED
:109F40000C3C002000B585B003460A468DF807306A
:109F500013468DF806309DF9073003F01F035BB2FE
:109F600043F020035BB2DAB2144B1A709DF806304E
:109F700003F01F03DAB2114B5A70114B02225A60E0
:109F80009DF8063002331A460D4BDA6000220C4968
:109F90000C4807F093FD0390039B112BF6D0039B15
:109FA0000293029B002B05D0074A40F678110298D5
:109FB0000AF0F4FD00BF05B05DF804FB543E00203C
:109FC0000C3C002008B50300D4A9030000B583B001
:109FD000034600928DF807300B468DF806300E4B85
:109FE00000221A709DF806209DF807301146184689
:109FF000FFF7A8FF00E020BF074B1B78DBB283F020
:10A000000103DBB2002BF6D10098FFF787FF00BFFA
:10A0100003B05DF804FB00BFB043002000B585B07D
:10A02000034600928DF807300B468DF806309DF9F7
:10A03000073003F01F035BB243F040035BB2DAB2B8
:10A04000184B1A709DF8063003F01F03DAB2154B57
:10A050005A709DF8063002331A46134B5A60124B61
:10A060000122DA6011489DF806301A4600990FF077
:10A070005FFD00220C490E4807F020FD0390039B72
:10A08000112BF6D0039B0293029B002B05D0094AAB
:10A0900040F6B41102980AF081FD039B184605B002
:10A0A0005DF804FB543E00200C3C0020563E00208E
:10A0B00008B50300D4A9030000BF704700B583B002
:10A0C000034600928DF807300B468DF80630084B9A
:10A0D00000221A709DF806109DF80730009A184665
:10A0E000FFF79CFFFFF7E8FF00BF03B05DF804FB3C
:10A0F000B043002000B583B0134B12221A70134BEB
:10A1000001225A60124B1B68802B01D1112300E001
:10A1100019230E4AD3600F4B00221A7000220B49FC
:10A120000D4807F0CBFC0190019B0093009B002B96
:10A1300005D00A4A40F6F11100980AF02FFD00BF41
:10A1400003B05DF804FB00BF543E00200C3C00202F
:10A150001C3C0020B043002008B50300D4A9030034
:10A1600000B597B003900B4601928DF80B30039B1E
:10A17000002B01D10023D5E0039B13939DF80B30F6
:10A18000032B07D0032B00F3C580012B7BD0022BC0
:10A190002FD0BFE03022654913980FF0C9FC644B03
:10A1A0005B781A46624B9B781B021A43604BDB7844
:10A1B0001B0413430B930B9B1B010B930B9B23F073
:10A1C0007F430B935B4B1A680B9B1343594A1360F5
:10A1D000019B002B00F0A080564B1B6843F07F438F
:10A1E0000B93139B30330B9A1A60524B00221A6068
:10A1F00092E0514B12930123159316E0159A1346E2
:10A200005B001344129A13441B881093109B5BBA93
:10A210000F930F9A159B013B92B25B0058336B442E
:10A2200023F83C2C159B01331593159B082BE5D97E
:10A2300006AB129A1188927819809A70069B0E9339
:10A240000E9B1BBA1B0A0693069B1B010693394BF8
:10A250001A68069B1343374A136007AB102219464E
:10A2600013980FF065FC019B002B57D0314B1B68F6
:10A2700043F07F430693139B1033069A1A602D4BCD
:10A2800000221A604AE0294B11930023149313E033
:10A29000149B5B00119A1344B3F900300D930D9B8E
:10A2A0005BBA0C930C99149B5B00119A13440AB28D
:10A2B0001A80149B01331493149B072BE8D91C4B71
:10A2C0005B781B0505931A4B9B781A03059B134378
:10A2D0000593174BDB781A01059B13430593154B28
:10A2E0001A68059B1343134A13601022119913989F
:10A2F0000FF01EFC019B002B12D00E4B1B6843F08D
:10A300007F430593139B1033059A1A60094B002273
:10A310001A6005E0002305E000BF02E000BF00E096
:10A3200000BF019B184617B05DF804FB583D0020A4
:10A33000543D0020AC470020553D002030B58FB083
:10A340006B4600221A605A609A60DA601A615A619C
:10A350001A8386238DF801309C238DF80330032364
:10A360008DF8043010238DF8053010238DF8063059
:10A3700010238DF8073010238DF8083010238DF846
:10A38000093010238DF80A3010238DF80B3010237C
:10A390008DF80C30FF238DF80F3002238DF810302C
:10A3A000F0238DF8163022238DF817300A238DF80C
:10A3B0001830E3238DF819302B20FDF722F92B20DC
:10A3C000FDF745F92020FDF71CF92020FDF753F992
:10A3D0004FF4FA70FDF740F82020FDF738F911200E
:10A3E000FFF70AFB07AB1A461A210020FFF7EEFD24
:10A3F0009DF81C30922B17D14C4A4D4BD31ADB08D9
:10A400001B0443F003034B4918460DF085FE474AF1
:10A41000474BD31ADB081B0443F0030307A91A2296
:10A4200018460DF0DDFE0AE0404A414BD31ADB0826
:10A430001B0443F00103404918460DF06DFE3F4BED
:10A440001B68DBB28DF801306B461A461A210020DA
:10A45000FFF734FE07AC6D460FCD0FC495E807003B
:10A4600003C422806B461A22002118460FF089FB94
:10A470006B461A461A210020FFF7A8FD694607AB74
:10A480001A2218460FF074FA0346002B0BD1274A04
:10A49000274BD31ADB081B0443F003032849184653
:10A4A0000DF03AFE16E0214A214BD31ADB081B04BB
:10A4B00043F00303234918460DF02EFE1B4A1C4BA4
:10A4C000D31ADB081B0443F0030369461A2218461B
:10A4D0000DF086FE03212A20FDF7A4F82A20FDF7BF
:10A4E000DEF80346002B0BD1104A114BD31ADB08C0
:10A4F0001B0443F00303144918460DF00DFE0AE057
:10A500000A4A0B4BD31ADB081B0443F003030F4921
:10A5100018460DF001FE00BF0DF016FF0346002B9C
:10A52000FAD100BF00BF0FB030BD00BF20A90300AB
:10A53000E0A8030058B303007CB303001C3C0020D8
:10A54000A4B30300C4B30300E4B3030004B40300E2
:10A5500000B587B0184B00221A7000230093012326
:10A56000164A68211648FCF7B0FF0590059B049336
:10A57000049B002B05D0134A40F6543104980AF08E
:10A580000DFB4FF4FA70FCF77FFF01230B4A6821A3
:10A590000B48FCF7BAFF0590059B0393039B002B28
:10A5A00005D0084A40F6593103980AF0F7FA00BF7F
:10A5B00007B05DF804FB00BFA4450020A5450020BE
:10A5C00010B50300D4A9030000B583B003468DF88D
:10A5D0000730084A084BD31ADB081B0443F0030377
:10A5E0009DF80720054918460DF0A4FD00BF03B0F3
:10A5F0005DF804FB20A90300E0A8030024B40300D5
:10A6000000B583B001900091019B1B78002B17D1FE
:10A61000019B1B79012B04D1114B1B781846FFF7C6
:10A62000D3FF104B01221A700F4A104BD31ADB08CC
:10A630001B0443F003030E4918460DF06DFD0BE0BB
:10A64000094A0A4BD31ADB081B0443F003030949E8
:10A6500018460DF061FD00BF00BF03B05DF804FBBC
:10A66000A5450020A445002020A90300E0A8030080
:10A6700034B403004CB4030000B587B06B4600222D
:10A680001A605A609A60DA600D23009314230193D4
:10A690004FF0CC73029302238DF80C3069460023EF
:10A6A000104A114805F0E8F80590059B0493049BB7
:10A6B000002B05D00D4A40F6C13104980AF06EFA1D
:10A6C0000948FCF7F6FE0A4A0A4BD31ADB081B04BA
:10A6D00043F00303084918460DF01EFD00BF07B004
:10A6E0005DF804FB01A6020010B50300D4A9030025
:10A6F00020A90300E0A8030060B4030008B51E4BC6
:10A700000222C3F8F0251C4B0922C3F810251A4B6E
:10A710001A4AC3F81825184B0622C3F8F425164B1D
:10A720000122C3F83026144B0022C3F8F825124B3F
:10A730000122C3F80025104B0122DA6000BF0E4B46
:10A74000D3F81031002BFAD00B4B0022C3F81021A4
:10A7500000BF094BD3F80034012BFAD0084A094B4B
:10A76000D31ADB081B0443F00303074918460DF016
:10A77000D3FC00BF08BD00BF007000400000030113
:10A7800020A90300E0A803007CB4030082B01E4AA5
:10A790000DF10603C2F82C361B4B0022C3F808212A
:10A7A000194B0122C3F80025174B01221A6000BF84
:10A7B000154BD3F80031002BFAD0134B0022C3F80D
:10A7C0000021114B01225A6000BF0F4BD3F8043116
:10A7D000002BFAD00C4B0022C3F804210A4B0022B4
:10A7E000C3F80025BDF806309BB21A464FF46163EA
:10A7F00003FB02F2054BA3FB0213D21A52081344C7
:10A80000DB0A184602B070470070004001011000DA
:10A8100000B583B04FF01023D3F8043303F00703DF
:10A82000072B21D15B4B0122C3F8042500BF594BF4
:10A83000D3F80034002BFAD04FF01023D3F80433B0
:10A8400023F007034FF0102243F00503C2F804334E
:10A85000504B0022C3F8042500BF4E4BD3F8003400
:10A86000002BFAD0FCF7D8FD4FF01023D3F80C32B0
:10A8700003F00103012B1FD1464B0122C3F804252D
:10A8800000BF444BD3F80034002BFAD04FF0102314
:10A89000D3F80C324FF0102223F00103C2F80C322F
:10A8A0003C4B0022C3F8042500BF3A4BD3F80034D8
:10A8B000002BFAD0FCF7B0FD2920FCF7A2FE002007
:10A8C000FCF79FFE0120FCF79CFE0020FCF7D3FE66
:10A8D0000020FCF7BCFE2920FCF7B9FE0120FCF7A4
:10A8E000B6FEFEF7FDFF2C4A2C4BD31ADB081B04E7
:10A8F00043F003004FF08053D3F8A8204FF080536B
:10A90000D3F8A43026490DF026FCFEF7C1FEFFF770
:10A91000B3FEFFF71DFEFFF7CBFAFDF7D7FDFFF7FC
:10A92000EDFE204B1846FCF70CFE0346002B01D130
:10A93000FDF736F90DF107031846FEF79BFFFEF70A
:10A94000EBFFFEF75BFDFDF7FFFDFEF7D5FDFEF724
:10A9500045FAFEF751FFFEF7ABFAFEF7F3FFFDF7FE
:10A96000CDF8FFF7EBFC0C4A0C4BD31ADB081B04A9
:10A9700043F003030C4918460DF0CEFB00BF0DF069
:10A98000E3FC0346002BFAD100BF00BF03B05DF823
:10A9900004FB00BF00E0014020A90300E0A8030081
:10A9A00090B4030000400240A8B4030000B583B097
:10A9B00003460091ADF80630BDF80630009A1946FE
:10A9C00003480AF0EBF800BF03B05DF804FB00BFDA
:10A9D000CEFAADDE00B587B001900091019B1B78E7
:10A9E000412B01D000233CE0019B013301931F491F
:10A9F00001980FF067F80590002304932BE00222E2
:10AA00001B4905980FF026F80346002B06D103AB2F
:10AA10001A46184905980EF0FBFF05E003AB1A46ED
:10AA2000154905980EF0F4FF039B002B0BDB039BED
:10AA3000FF2B08DC0399049B5A1C04921A46009BC6
:10AA40001344CAB21A70049B1B2B08DC0749002070
:10AA50000FF038F80590059B002BD0D100E000BF27
:10AA6000049B184607B05DF804FB00BF28B3030041
:10AA7000D4B40300D8B40300DCB4030000B583B041
:10AA80000190019B1B68184600F01FF90346002B3C
:10AA900004D10B494FF4F670FFF788FF019B1B6848
:10AAA0001F2B02D84FF0A04306E0019B1B6803F068
:10AAB0001F02019B1A60034B184603B05DF804FBAC
:10AAC00028B503000003005000B585B0019008468A
:10AAD00011461A4603468DF803300B468DF80230B6
:10AAE00013468DF8013001AB1846FFF7C7FF0390FE
:10AAF0009DF803209DF802305B001A439DF8013059
:10AB00009B001A439DF818301B0242EA03019DF88E
:10AB10001C301B04019A1943039B02F5E07243F8B1
:10AB2000221000BF05B05DF804FB00B585B00390AE
:10AB300000230193002300930023012201210398A5
:10AB4000FFF7C2FF00BF05B05DF804FB00B585B09C
:10AB500003900B468DF80B309DF80B3000220192CC
:10AB600000220092002200210398FFF7ADFF00BFF2
:10AB700005B05DF804FB00B585B0019001AB184647
:10AB8000FFF77CFF0390019B012202FA03F31946B1
:10AB9000039800F086F800BF05B05DF804FB00B52F
:10ABA00085B0019001AB1846FFF768FF0390019B49
:10ABB000012202FA03F31946039800F07CF800BF63
:10ABC00005B05DF804FB00B585B0019001AB1846F7
:10ABD000FFF754FF0390039BD3F804350293029BC5
:10ABE000DA43019B012101FA03F31A40039BC3F8E6
:10ABF0000825019B01229A40029B1A40039BC3F83F
:10AC00000C2500BF05B05DF804FB00B583B00190D2
:10AC10000091009B002B03D10198FFF7C0FF02E0D9
:10AC20000198FFF7A8FF00BF03B05DF804FB00B573
:10AC300085B0019001AB1846FFF720FF0390039801
:10AC400000F01FF80246019B22FA03F303F0010310
:10AC5000184605B05DF804FB00B585B0019001AB66
:10AC60001846FFF70BFF0390039800F012F8024616
:10AC7000019B22FA03F303F00103184605B05DF8C7
:10AC800004FB82B00190019BD3F81035184602B046
:10AC9000704782B00190019BD3F80435184602B08A
:10ACA000704782B001900091019B009AC3F808257B
:10ACB00000BF02B0704782B001900091019B009AE2
:10ACC000C3F80C2500BF02B0704784B00190019B0F
:10ACD0005B09029300230393029B002B03D0029B8A
:10ACE000012B04D007E04FF0FF33039303E04FF64E
:10ACF000FF73039300BF019B03F01F030193039AAB
:10AD0000019B22FA03F303F00103002B14BF01237C
:10AD10000023DBB2184604B07047000000B585B0D0
:10AD20000190019B032B03D90B493A20FFF73EFE0C
:10AD30000A4A019B13441B781846FFF78DFF034610
:10AD4000002B14BF012300238DF80F309DF80F3026
:10AD5000184605B05DF804FB60B50300A4B5030018
:10AD600000B583B00190019B032B03D90749412013
:10AD7000FFF71CFE064A019B13441B78012118466D
:10AD8000FFF743FF00BF03B05DF804FB60B50300AD
:10AD9000A4B5030000B583B00190019B032B03D938
:10ADA00007494720FFF702FE064A019B13441B7820
:10ADB00000211846FFF729FF00BF03B05DF804FB30
:10ADC00060B50300A4B5030000B583B00023019370
:10ADD00005E00198FFF7DEFF019B01330193019B22
:10ADE000032BF6D900BF00BF03B05DF804FB00B52C
:10ADF00083B00023019305E00198FFF7B1FF019BA9
:10AE000001330193019B032BF6D900BF00BF03B0B0
:10AE10005DF804FB00B583B00190019B032B03D9BF
:10AE200007495F20FFF7C2FD064A019B13441B78C8
:10AE30001846FFF7C8FE00BF03B05DF804FB00BF73
:10AE400060B50300A4B5030000B583B000230193EF
:10AE500009E0094A019B13441B781846FFF765FE79
:10AE6000019B01330193019B032BF2D9FFF7ACFF48
:10AE700000BF03B05DF804FBA4B5030000B585B0C6
:10AE80000190019B002B03D00F49AC20FFF78EFDF2
:10AE900005231846FFF7CBFE0346002B14BF012302
:10AEA00000238DF80F309DF80F30002B14BF0123C5
:10AEB0000023DBB283F00103DBB203F00103DBB25A
:10AEC000184605B05DF804FB60B5030000B583B01B
:10AED0000023019307E0052303211846FFF736FE00
:10AEE000019B01330193019B002BF4D000BF00BFF5
:10AEF00003B05DF804FB84B001904FF0FF33029380
:10AF0000002303930AE005231A46019B934202D1D2
:10AF1000039B029305E0039B01330393039B002BE8
:10AF2000F1D0029B184604B07047000000B583B012
:10AF30000190019B002B03D00449CB20FFF736FD85
:10AF40000523184603B05DF804FB00BF60B503009D
:10AF500000B583B00190019B03F00103002B01D0E9
:10AF6000FFF772FF019B03F00203002B01D0FFF7F4
:10AF7000ADFF00BF03B05DF804FB000000B583B077
:10AF80000190019B1B68184600F04CF80346002B0B
:10AF900004D10B494FF4F670FFF708FD019B1B68C5
:10AFA0001F2B02D84FF0A04306E0019B1B6803F063
:10AFB0001F02019B1A60034B184603B05DF804FBA7
:10AFC000A8B503000003005000B585B001900B4602
:10AFD0008DF8033001AB1846FFF7D0FF0390019ABC
:10AFE000039B02F5E07253F82230019A23F44031BA
:10AFF000039B02F5E07243F82210019A039B02F5CD
:10B00000E07253F822309DF8032012041146019A91
:10B010001943039B02F5E07243F8221000BF05B00C
:10B020005DF804FB84B00190019B5B09029300234F
:10B030000393029B002B03D0029B012B04D007E05B
:10B040004FF0FF33039303E04FF6FF73039300BF0A
:10B05000019B03F01F030193039A019B22FA03F360
:10B0600003F00103002B14BF01230023DBB21846B9
:10B0700004B0704700B583B00190019B002B04D150
:10B080000198FFF7FBFE034600E00023184603B0DB
:10B090005DF804FB00B587B003460A468DF807301B
:10B0A00013468DF8063000238DF8173000230493E3
:10B0B0009DF807301846FFF71EFF0490049B002BF5
:10B0C00061D19DF80630022B52D0022B5EDC002BA2
:10B0D00031D0012B5AD13649049A13465B001344F0
:10B0E0000B441B788DF817303149049A13465B00E6
:10B0F00013440B4401331B78002B0ED02D4B2E4AEA
:10B100004FF4804118460AF01DFA0390039B002B70
:10B1100003D1294A9DF8073013702549049A134634
:10B120005B0013440B4402331978244A049B1344F4
:10B130000A461A702AE01F4B18460AF05BFA1F4AAB
:10B14000049B134419781A48049A13465B0013446D
:10B15000034402331B78994217D11549049A1346C8
:10B160005B0013440B4402331B788DF817300CE05E
:10B170000F49049A13465B0013440B4401331B78B8
:10B180008DF8173002E000BF00E000BF9DF81730D7
:10B19000002B09D00A4B1B68002B05D0084B1B68FD
:10B1A0009DF817201046984700BF07B05DF804FBD4
:10B1B000EC480020703C0020EF480020F0480020C0
:10B1C000E848002000B583B00190019B1B78022164
:10B1D0001846FFF75FFF00BF03B05DF804FB0000F7
:10B1E00000B583B00C4B1B78002B0FD000230193CC
:10B1F00008E0019B022B02D00198FFF7CBFD019BD9
:10B2000001330193019B032BF3D901E0FFF7DCFD30
:10B2100000BF03B05DF804FBE44800202DE9D04FE7
:10B2200092B003468DF83F30002311930023109312
:10B23000CB4B1B78002B04D0C94A00231370FFF7B7
:10B24000CFFF9DF83F30172B00F23C8201A252F84D
:10B2500023F000BFB5B20200CDB20200CDB20200B1
:10B2600069B3020005B4020081B4020015B5020002
:10B2700035B5020045B502006DB502008BB5020080
:10B28000A7B50200C5B50200D3B50200D3B50200D0
:10B29000D3B50200D3B50200D3B5020067B60200F1
:10B2A00075B6020089B602009DB60200B7B602006C
:10B2B000B7B60200FFF794FFAA4B18460AF09AF9B6
:10B2C0001190A94A9DF83F301370FCE10020FFF770
:10B2D00025FD0346002B0DD00020FFF75BFD9DF8F8
:10B2E0003F30022B02D14FF4E16301E04FF47A6367
:10B2F00010930BE00020FFF733FD9DF83F30022B49
:10B3000001D1C82301E04FF4C8731093964A9DF809
:10B310003F301370934C109B0022009301924FF02A
:10B3200000024FF00003DDE900673946CB033146E8
:10B3300043EA51433146CA0312F57A71029143F14F
:10B34000000303934FF4FA624FF00003DDE90201BA
:10B350000EF08AF902460B46134600221946204693
:10B360000AF0F0F81190AEE10020FFF7D7FC034699
:10B37000002B0DD00020FFF70DFD9DF83F30032B73
:10B3800002D14FF4487301E04FF47A6310930BE05D
:10B390000020FFF7E5FC9DF83F30032B01D1C823C7
:10B3A00001E04FF4C87310936F4A9DF83F3013705B
:10B3B0006C4C109B0022049305924FF000024FF05A
:10B3C0000003DDE904673946CB03314643EA5143C4
:10B3D0003146CA0312F57A71069143F100030793CF
:10B3E0004FF4FA624FF00003DDE906010EF03CF97C
:10B3F00002460B4613460022194620460AF0A2F8E0
:10B40000119060E10020FFF789FC0346002B06D075
:10B410000020FFF7BFFC4FF47A63109305E0002093
:10B42000FFF79EFC4FF4C87310934F4A9DF83F30CE
:10B4300013704C4C109B00229A4693464FF000022A
:10B440004FF000034FEACB3343EA5A434FEACA3284
:10B4500012F57A71089143F1000309934FF4FA62EF
:10B460004FF00003DDE908010EF0FEF802460B463E
:10B4700013460022194620460AF064F8119022E192
:10B480000020FFF74BFC0346002B0CD00020FFF7F9
:10B4900081FC9DF83F30052B01D1C82301E04FF41A
:10B4A0007A6310930BE00020FFF75AFC9DF83F30C1
:10B4B000052B01D1C82301E04FF4C87310932A4A29
:10B4C0009DF83F301370274C109B00229846914600
:10B4D0004FF000024FF000034FEAC93343EA5843EC
:10B4E0004FEAC83212F57A710A9143F100030B93C7
:10B4F0004FF4FA624FF00003DDE90A010EF0B4F8F0
:10B5000002460B4613460022194620460AF01AF856
:10B510001190D8E00020FFF77DFC134A9DF83F30E2
:10B520001370104B002240F2666118460AF00AF8C8
:10B530001190C8E00020FFF713FC0B4A9DF83F3044
:10B540001370C0E0064B01221A700120FFF762FC65
:10B55000044B0022A421184609F0F4FF1190B2E038
:10B56000DD480020303C0020DC480020584B012200
:10B570001A700120FFF74EFC564B00224FF4005189
:10B58000184609F0DFFF11909DE0514B01221A701F
:10B590000120FFF73FFC4F4B0022A421184609F081
:10B5A000D1FF11908FE04A4B01221A700120FFF762
:10B5B00031FC484B00224FF40051184609F0C2FFFD
:10B5C000119080E0FFF713FC434A9DF83F30137061
:10B5D00079E0424B18460AF00DF811909DF83F3083
:10B5E000C3F111031093109B002B35D0119B002B3E
:10B5F00032D1109B012B28D9384C109B9BB21A4694
:10B60000C82302FB03F3DA171E4617464FF0000269
:10B610004FF00003FB0343EA5643F20312F57A713D
:10B620000C9143F100030D934FF4FA624FF00003C5
:10B63000DDE90C010EF018F802460B461346002215
:10B640001946204609F07EFF11900220FFF788FB83
:10B65000234B01221A7036E00220FFF79BFB204BA0
:10B6600000221A702FE0FFF7BBFD1B4A9DF83F3008
:10B67000137028E0FFF7B4FD0020FFF771FB164AB6
:10B680009DF83F3013701EE0FFF7AAFD0120FFF781
:10B6900067FB114A9DF83F30137014E0FFF7A0FDDF
:10B6A0000020FFF75DFB0120FFF75AFB0A4A9DF8D7
:10B6B0003F30137007E0FFF79AFB074A9DF83F30D1
:10B6C000137000E000BF119B184612B0BDE8D08F88
:10B6D000DD480020303C0020DC480020503C0020A9
:10B6E000E448002000B583B00190074B1B6803F0CD
:10B6F0000103002B04D0054B1B781846FFF78EFD85
:10B7000000BF03B05DF804FBE0480020DC480020E7
:10B7100000B583B001900220FFF77CFB00BF03B0AF
:10B720005DF804FB00B585B003468DF807300023B3
:10B730000393084B1B6803F00103002B05D09DF811
:10B7400007301846FFF76AFD0390039B184605B0C3
:10B750005DF804FBE048002000B585B00190009141
:10B76000002303932A4A019B13602A4A009B13601B
:10B77000019B03F00203002B2AD00023029308E070
:10B7800001220121029800F055F80390029B013339
:10B790000293029B002B02D1039B002BF0D0039B52
:10B7A000002B06D140F2333201211B4809F0F6F894
:10B7B0000390039B002B02D109F078F90390039BBF
:10B7C000002B05D1154A0021154809F081FE039090
:10B7D000019B03F00103002B14D00120FFF7B8FBFD
:10B7E000039B002B05D10F4A00210F4809F070FE82
:10B7F0000390039B002B05D10C4A01210C4809F052
:10B8000067FE0390039B184605B05DF804FB00BF7C
:10B81000E0480020E8480020ECB50300C5B1020074
:10B82000E8B50300E5B60200E0B5030011B7020079
:10B83000E4B5030084B001900B468DF80330134645
:10B840008DF8023000230393019B002B3CD19DF81F
:10B850000230012B0BD19DF80330012B04D1019B49
:10B86000DBB20E33DBB200E000238DF802309DF82E
:10B870000330022B0FD0022B23DC002B16D0012B20
:10B880001FD11449019A13465B0013440B449DF8E1
:10B8900002201A701AE00F49019A13465B00134404
:10B8A0000B4401339DF802201A700FE00949019AF8
:10B8B00013465B0013440B4402339DF802201A70B8
:10B8C00004E00723039301E007230393039B184637
:10B8D00004B07047EC48002000B585B001900B46DD
:10B8E0008DF80330019B002B14D19DF80330002B01
:10B8F00001D0032300E000238DF80F300198FFF7FB
:10B9000015FB02469DF80F3019461046FFF75CFB09
:10B91000002300E00623184605B05DF804FB00B5DF
:10B9200083B0019001210198FFF7D6FF0346184626
:10B9300003B05DF804FB00B583B0012200210020B4
:10B94000FFF778FF0190019B002B04D0019B072B90
:10B9500001D0019B1CE0072202210120FFF76AFFB2
:10B960000190019B002B04D0019B072B01D0019B70
:10B970000EE0042202210020FFF75CFF0190019BF2
:10B98000002B04D0019B072B01D0019B00E000237A
:10B99000184603B05DF804FB00B583B00122022114
:10B9A0000020FFF747FF0190019B002B04D0019B73
:10B9B000072B01D0019B1CE0072202210120FFF789
:10B9C00039FF0190019B002B04D0019B072B01D074
:10B9D000019B0EE00A2200210020FFF72BFF0190BF
:10B9E000019B002B04D0019B072B01D0019B00E0A1
:10B9F0000023184603B05DF804FB00B583B0019046
:10BA00000120FFF737FB0346002B03D0019B0222E6
:10BA10001A700CE00020FFF72DFB0346002B03D02B
:10BA2000019B0B221A7002E0019B00221A7000BFDA
:10BA300003B05DF804FB00B583B00020FFF76FFF93
:10BA40000190019B002B04D0019B062B01D0019B90
:10BA50000CE00120FFF763FF0190019B002B04D055
:10BA6000019B062B01D0019B00E00023184603B088
:10BA70005DF804FB00B585B001900091019B1B8827
:10BA8000102B02D0112B18D02FE01A4B1B68002B63
:10BA90000DD1FFF750FF0390039B002B07D0164BEF
:10BAA0001B68002B03D0144B1B6803989847114B5D
:10BAB0001B6801330F4A136017E00E4B1B68013BF4
:10BAC0000C4A13600B4B1B68002B0DD1FFF764FF72
:10BAD0000390039B002B07D0074B1B68002B03D060
:10BAE000054B1B680398984700BF00BF05B05DF881
:10BAF00004FB00BFF8480020F448002000B585B0E2
:10BB000001900091002303930A4A019B1360009B5C
:10BB1000002B02D00098FFF770FF074B1B68002B2B
:10BB200002D1FFF739FF0390039B184605B05DF87B
:10BB300004FB00BFF4480020F8480020BFF34F8FFB
:10BB400000BF064BDB6803F4E0620449044B134377
:10BB5000CB60BFF34F8F00BF00BFFDE700ED00E0FB
:10BB60000400FA0582B0164B1B680193154B1B6845
:10BB70000093019B082B1FD1009B052B1AD801A213
:10BB800052F823F09DBB0200A1BB0200A5BB02003E
:10BB9000A9BB0200ADBB0200B1BB020001230CE057
:10BBA00001230AE0012308E0012306E0012304E069
:10BBB000012302E0012300E00023184602B0704791
:10BBC000300100103401001082B0164B1B68019345
:10BBD000154B1B680093019B082B1FD1009B052B65
:10BBE0001AD801A252F823F001BC020005BC0200E1
:10BBF00009BC02000DBC020011BC020015BC020011
:10BC000001230CE001230AE0012308E0012306E000
:10BC1000012304E0012302E0012300E00023184691
:10BC200002B07047300100103401001082B0164B92
:10BC30001B680193154B1B680093019B082B1FD1B8
:10BC4000009B052B1AD801A252F823F065BC020014
:10BC500069BC02006DBC020071BC020075BC020030
:10BC600079BC020001230CE000230AE0002308E075
:10BC7000002306E0002304E0002302E0002300E0AC
:10BC80000023184602B07047300100103401001044
:10BC900082B0164B1B680193154B1B680093019BE8
:10BCA000082B1FD1009B052B1AD801A252F823F0B4
:10BCB000C9BC0200CDBC0200D1BC0200D5BC020050
:10BCC000D9BC0200DDBC020001230CE000230AE025
:10BCD000002308E0002306E0002304E0002302E044
:10BCE000002300E00023184602B070473001001026
:10BCF0003401001082B0164B1B680193154B1B6872
:10BD00000093019B082B1FD1009B052B1AD801A281
:10BD100052F823F02DBD020031BD020035BD0200F6
:10BD200039BD02003DBD020041BD020001230CE00F
:10BD300000230AE0002308E0002306E0002304E0DB
:10BD4000002302E0002300E00023184602B0704701
:10BD5000300100103401001082B0164B1B680193B3
:10BD6000154B1B680093019B082B1FD1009B052BD3
:10BD70001AD801A252F823F091BD020095BD02002D
:10BD800099BD02009DBD0200A1BD0200A5BD02003B
:10BD900001230CE000230AE0002308E0002306E072
:10BDA000002304E0002302E0002300E00023184603
:10BDB00002B07047300100103401001082B0164B01
:10BDC0001B680193154B1B680093019B082B1FD127
:10BDD000009B052B1AD801A252F823F0F5BD0200F2
:10BDE000F9BD0200FDBD020001BE020005BE020059
:10BDF00009BE020001230CE001230AE0012308E050
:10BE0000012306E0012304E0012302E0012300E016
:10BE10000023184602B070473001001034010010B2
:10BE200082B0164B1B680193154B1B680093019B56
:10BE3000082B1FD1009B052B1AD801A252F823F022
:10BE400059BE02005DBE020061BE020065BE020076
:10BE500069BE02006DBE020000230CE000230AE070
:10BE6000002308E0002306E0012304E0012302E0B0
:10BE7000012300E00023184602B070473001001093
:10BE80003401001008B5FFF7CBFF0346002B07D0A5
:10BE90004FF010234FF08042D3F80832C2F85835E3
:10BEA00000BF08BD00BF044BD3F80034002BFAD00C
:10BEB00000BF00BF704700BF00E0014000B583B085
:10BEC0000190054A019BC2F80435FFF7EBFF00BF64
:10BED00003B05DF804FB00BF00E00140024B034AE1
:10BEE0001A6000BF704700BF903C00200090D00354
:10BEF00008B5FFF737FE0346002B0ED04FF0804306
:10BF00000022C3F80C214FF080430022C3F8102117
:10BF10004FF080430022C3F83825FFF755FE034653
:10BF2000002B76D04FF08053734AD3F80434C2F814
:10BF300020354FF08053704AD3F80834C2F82435C6
:10BF40004FF080536C4AD3F80C34C2F828354FF0C8
:10BF50008053694AD3F81034C2F82C354FF080531F
:10BF6000654AD3F81434C2F830354FF08053624A32
:10BF7000D3F81834C2F834354FF080535E4AD3F802
:10BF80001C34C2F840354FF080535B4AD3F820345C
:10BF9000C2F844354FF08053574AD3F82434C2F8DE
:10BFA00048354FF08053544AD3F82834C2F84C3502
:10BFB0004FF08053504AD3F82C34C2F850354FF02C
:10BFC00080534D4AD3F83034C2F854354FF0805383
:10BFD000494AD3F83434C2F860354FF08053464AAA
:10BFE000D3F83834C2F864354FF08053424AD3F85E
:10BFF0003C34C2F868354FF080533F4AD3F84034A0
:10C00000C2F86C354FF080533B4AD3F84434C2F841
:10C010007035FFF70BFE0346002B02D0374B384A32
:10C020001A60FFF735FE0346002B03D0354BFB2289
:10C03000C3F81825FFF75EFE0346002B0AD0324BEB
:10C040001B6823F00F02314B1B6803F00F032E49CE
:10C0500013430B60FFF780FE0346002B03D02C4BED
:10C060004FF400721A60FFF7A9FE0346002B0DD0B3
:10C070004FF08043D3F8003403F00103002B05D0C8
:10C080004FF080436FF00102C3F80024214BD3F836
:10C090008830204A43F47003C2F88830BFF34F8FD2
:10C0A00000BFBFF36F8F00BFFFF7ECFE4FF0102310
:10C0B000D3F80032002B05DB4FF01023D3F8043205
:10C0C000002B15DA0120FFF7F9FE4FF010231222A2
:10C0D000C3F80022FFF7E6FE4FF010231222C3F848
:10C0E0000422FFF7DFFE0020FFF7E8FEFFF726FD42
:10C0F000FFF7F4FE00BF08BD00C000408C560040B2
:10C100004881030000F00040E40E00405802001097
:10C110004096024000ED00E000487047BC58002007
:10C120006DDF704700BF184679DF704700BF1846C3
:10C130007DDF704700BF184664DF704700BF1846B8
:10C1400082B003460091ADF80630BDF80630DAB291
:10C15000009B1A70BDF806301B0A9AB2009B01338F
:10C16000D2B21A700223184602B0704700B589B0E7
:10C17000039002911346ADF80630029B1B8803F131
:10C180000902BDF806309A4201D90C2353E004ABF2
:10C190001846FFF7C5FF0790079B0693069B002BE9
:10C1A00001D0069B47E0029B1B881A46039B134461
:10C1B00008221A70029B1B8801339AB2029B1A80D4
:10C1C000029B1B881A46039B13441B221A70029B76
:10C1D0001B8801339AB2029B1A80029B1B881A4665
:10C1E000039B981804AB0133062219460DF0A0FCFE
:10C1F000029B1B8806339AB2029B1A809DF810306E
:10C2000023F00103DBB2002B07D1029B1B881A46E7
:10C21000039B134400221A7006E0029B1B881A46F7
:10C22000039B134401221A70029B1B8801339AB2AC
:10C23000029B1A800023184609B05DF804FB00B584
:10C2400089B0039002910192ADF80230039B1B78F4
:10C25000012B05D1039B5B78002B01D1072392E0D2
:10C26000019B1B889A1CBDF802309A420ED8039B92
:10C270001B78012B0CD1019B1B881A46039B5B7812
:10C2800013449A1CBDF802309A4201D90C237AE07B
:10C29000019B1B88BDF80220D31A9BB2023BADF86C
:10C2A0001C30BDF81C30ADF81230019B1B880233E6
:10C2B000029A13440DF1120211461846FFF738FF97
:10C2C0000690069B0593059B002B01D0059B5AE029
:10C2D000039B1B78022B06D0039B5B789AB2BDF8B8
:10C2E00012309A4209D3BDF81230BDF81C209A4290
:10C2F00003D309238DF81F3017E008238DF81F3072
:10C30000039B1B78012B0CD1039B5B789BB2BDF880
:10C310001C209A4205D3039B5B789BB2ADF8123088
:10C3200003E0BDF81C30ADF81230BDF81230FE2B22
:10C3300001D90C2327E0BDF81230DAB2019B1B882B
:10C340001946029B0B440132D2B21A70019B1B8822
:10C3500001339AB2019B1A80019B1B881A46029BEB
:10C3600013449DF81F201A70019B1B8801339AB259
:10C37000019B1A80019B1A88BDF8123013449AB2AF
:10C38000019B1A800023184609B05DF804FB00B534
:10C3900089B0039002911346ADF80630029B1B88CA
:10C3A0001A1DBDF806309A4201D90C233BE00DF16D
:10C3B00016031846FFF7B8FE0790079B0693069BE7
:10C3C000002B01D0069B2EE0029B1B881A46039B84
:10C3D000134403221A70029B1B8801339AB2029BFA
:10C3E0001A80029B1B881A46039B134419221A7059
:10C3F000029B1B8801339AB2029B1A80BDF816205B
:10C40000029B1B881946039B0B4419461046FFF7F5
:10C4100097FE03461946029B1A888BB213449AB2C0
:10C42000029B1A800023184609B05DF804FB84B013
:10C43000029101921A4603468DF80F301346ADF86B
:10C440000C30019B1B88DA1CBDF80C309A4201D9D4
:10C450000C2328E0019B1B881A46029B13440222EE
:10C460001A70019B1B8801339AB2019B1A80019BB1
:10C470001B881A46029B134401221A70019B1B88D9
:10C4800001339AB2019B1A80019B1B881A46029BBA
:10C4900013449DF80F201A70019B1B8801339AB238
:10C4A000019B1A800023184604B0704784B00291A3
:10C4B00001921A4603468DF80F301346ADF80C3042
:10C4C000019B1B88DA1CBDF80C309A4201D90C2361
:10C4D00028E0019B1B881A46029B134402221A7013
:10C4E000019B1B8801339AB2019B1A80019B1B8818
:10C4F0001A46029B13440A221A70019B1B880133BF
:10C500009AB2019B1A80019B1B881A46029B134416
:10C510009DF80F201A70019B1B8801339AB2019B72
:10C520001A800023184604B0704700B58FB00390FE
:10C5300001930B468DF80B3013468DF80A3000231B
:10C540008DF83330109B1B88ADF8303000230D93ED
:10C5500071E0039B5A680D9B9B001A4405AB106861
:10C5600018600DF11B0105AB00221846FFF7E4FD32
:10C570000A900A9B0993099B002B01D0099B7CE040
:10C580009DF81B309DF80A209A4251D19DF8333016
:10C59000002B01D0002300E002238DF82330109BF4
:10C5A0001B881A469DF81B301A449DF823301A4404
:10C5B000BDF844309A4201DD0C235EE09DF8333033
:10C5C00083F00103DBB2002B16D0109B1B880133D4
:10C5D0009AB2109B1A80109B1B881A46019B134429
:10C5E0009DF80B201A70109B1B8801339AB2109B88
:10C5F0001A8001238DF83330109B1B881A46019B4B
:10C600001A440DF11B0105AB1846FFF795FD0A9082
:10C610000A9B0793079B002B01D0079B2DE0109BE3
:10C620001A889DF81B309BB213449AB2109B1A8053
:10C630000D9B01330D93039B1B881A460D9B934260
:10C6400087DB9DF83330002B16D0109B1A88BDF87D
:10C650003030D31A9BB2013BADF82E30BDF82E30EE
:10C66000FF2B01D90C2308E0BDF83030019A1344A8
:10C67000BDF82E20D2B21A70002318460FB05DF814
:10C6800004FB00B58BB0059003930B468DF8133077
:10C6900013468DF812309DF81310BDF83430019315
:10C6A0000C9B0093039B02220598FFF73EFF099025
:10C6B000099B0893089B002B01D0089B14E09DF870
:10C6C0001210BDF8343001930C9B0093039B102291
:10C6D0000598FFF72AFF0990099B0793079B002BFA
:10C6E00001D0079B00E0002318460BB05DF804FB67
:10C6F00082B00190019B1B88052B0AD9019B1B88E6
:10C70000B3F5486F07D9019B1B884FF6FF72934220
:10C7100001D0072325E0019B5B88052B0AD9019BEB
:10C720005B88B3F5486F07D9019B5B884FF6FF72B2
:10C73000934201D0072314E0019B1B884FF6FF7240
:10C7400093420DD0019B5B884FF6FF72934207D056
:10C75000019B1A88019B5B889A4201D9072300E05C
:10C760000023184602B0704700B587B003900291CD
:10C770000192ADF80230019B1B889A1DBDF8023072
:10C780009A4201D90C234DE00398FFF7B1FF0590C1
:10C79000059B0493049B002B01D0049B42E0019B6A
:10C7A0001B881A46029B134405221A70019B1B88A2
:10C7B00001339AB2019B1A80019B1B881A46029B87
:10C7C000134412221A70019B1B8801339AB2019BF9
:10C7D0001A80039B1A88019B1B881946029B0B44F5
:10C7E00019461046FFF7ACFC03461946019B1A8810
:10C7F0008BB213449AB2019B1A80039B5A88019B07
:10C800001B881946029B0B4419461046FFF798FCFB
:10C8100003461946019B1A888BB213449AB2019BB6
:10C820001A800023184607B05DF804FB00B587B0F6
:10C83000039002910192ADF80230039B9B88023372
:10C840000593019B1B881A46059B13449A1CBDF84F
:10C8500002309A4201D90C2354E0059BFE2B01D9EA
:10C860000C234FE0059BDAB2019B1B881946029B03
:10C870000B440132D2B21A70019B1B8801339AB269
:10C88000019B1A80019B1B881A46029B1344FF22BE
:10C890001A70019B1B8801339AB2019B1A80039B7B
:10C8A0001A88019B1B881946029B0B4419461046A7
:10C8B000FFF746FC03461946019B1A888BB21344C6
:10C8C0009AB2019B1A80039B9B88002B19D0039B73
:10C8D0009B68002B01D1072314E0019B1B881A469B
:10C8E000029B9818039B9968039B9B881A460DF03E
:10C8F0001FF9019B1A88039B9B8813449AB2019BE2
:10C900001A800023184607B05DF804FB00B589B013
:10C91000039002910192ADF80230039B9B6A002BB9
:10C9200001D1072372E000238DF81F3066E0039BDE
:10C93000996A9DF81F2013465B0013449B000B442B
:10C940000693069B9B8802330593059BFE2B01D91A
:10C950000C235BE0059BDAB2019B1B881946029B06
:10C960000B440132D2B21A70019B1B8801339AB278
:10C97000019B1A80019B1B881A46029B13441622B6
:10C980001A70019B1B8801339AB2019B1A80069B87
:10C990001A88019B1B881946029B0B4419461046B6
:10C9A000FFF7CEFB03461946019B1A888BB213444E
:10C9B0009AB2019B1A80069B9B88002B19D0069B7C
:10C9C0009B68002B01D1072320E0019B1B881A469E
:10C9D000029B9818069B9968069B9B881A460DF047
:10C9E000A7F8019B1A88069B9B8813449AB2019B67
:10C9F0001A809DF81F3001338DF81F30039B93F888
:10CA00002C309DF81F209A4291D30023184609B07C
:10CA10005DF804FB00B595B00590049103920023E6
:10CA20001393039B1B88ADF84A30039B00221A80A6
:10CA3000059B93F82D30002B0ED0BDF84A301A46D6
:10CA400003990498FFF792FB1390139B1193119B8A
:10CA5000002B01D0119BD8E0059B9B78002B0ED0BA
:10CA6000BDF84A301A4603990498FFF790FC1390DA
:10CA7000139B1093109B002B01D0109BC5E0059BCE
:10CA8000DB78002B10D0059BDB7858B2BDF84A301C
:10CA9000039A0499FFF7CBFC1390139B0F930F9B02
:10CAA000002B01D00F9BB0E0059B5B68002B11D0E1
:10CAB000059B5B6893F90000BDF84A30039A04991E
:10CAC000FFF7F4FC1390139B0E930E9B002B01D0E9
:10CAD0000E9B9AE0059B1B89002B14D0059B03F14C
